{
  "contractName": "ConvertLib",
  "abi": [
    {
      "constant": true,
      "inputs": [
        {
          "internalType": "uint256",
          "name": "amount",
          "type": "uint256"
        },
        {
          "internalType": "uint256",
          "name": "conversionRate",
          "type": "uint256"
        }
      ],
      "name": "convert",
      "outputs": [
        {
          "internalType": "uint256",
          "name": "convertedAmount",
          "type": "uint256"
        }
      ],
      "payable": false,
      "stateMutability": "pure",
      "type": "function"
    }
  ],
  "bytecode": "0x60c3610025600b82828239805160001a60731461001857fe5b30600052607381538281f3fe730000000000000000000000000000000000000000301460806040526004361060335760003560e01c806396e4ee3d146038575b600080fd5b606b60048036036040811015604c57600080fd5b8101908080359060200190929190803590602001909291905050506081565b6040518082815260200191505060405180910390f35b600081830290509291505056fea265627a7a72315820e3811178f13888efff2f1b41a14dbdd86ea489e1c1e5db4071a7180cf592f7ea64736f6c63430005100032",
  "source": "pragma solidity ^0.5.0;\r\n\r\nlibrary ConvertLib {\r\n\tfunction convert(uint amount,uint conversionRate) public pure returns (uint convertedAmount)\r\n\t{\r\n\t\treturn amount * conversionRate;\r\n\t}\r\n}\r\n",
  "sourcePath": "D:\\test_app\\Arco-sec\\Arco_sec_front\\contracts\\ConvertLib.sol",
  "compiler": {
    "name": "solc",
    "version": "0.5.16+commit.9c3226ce.Emscripten.clang"
  },
  "schemaVersion": "3.3.1",
  "updatedAt": "2020-11-03T11:09:24.008Z",
  "networkType": "ethereum",
  "devdoc": {
    "methods": {}
  },
  "userdoc": {
    "methods": {}
  }
}