{
  "contractName": "MailTransfer",
  "abi": [
    {
      "anonymous": false,
      "inputs": [
        {
          "indexed": false,
          "internalType": "string",
          "name": "randomNumber",
          "type": "string"
        }
      ],
      "name": "MailAdded",
      "type": "event"
    },
    {
      "constant": false,
      "inputs": [
        {
          "internalType": "string",
          "name": "hashIPFS",
          "type": "string"
        },
        {
          "internalType": "string",
          "name": "mailId",
          "type": "string"
        },
        {
          "internalType": "address[]",
          "name": "receiverAddresses",
          "type": "address[]"
        },
        {
          "internalType": "string",
          "name": "randomNumber",
          "type": "string"
        }
      ],
      "name": "addMail",
      "outputs": [],
      "payable": false,
      "stateMutability": "nonpayable",
      "type": "function"
    },
    {
      "constant": true,
      "inputs": [
        {
          "internalType": "string",
          "name": "mailId",
          "type": "string"
        }
      ],
      "name": "getHash",
      "outputs": [
        {
          "internalType": "string",
          "name": "",
          "type": "string"
        }
      ],
      "payable": false,
      "stateMutability": "view",
      "type": "function"
    }
  ],
  "bytecode": "0x608060405234801561001057600080fd5b50610c2b806100206000396000f3fe608060405234801561001057600080fd5b50600436106100355760003560e01c806237f88c1461003a5780635b6beeb9146102b7575b600080fd5b6102b56004803603608081101561005057600080fd5b810190808035906020019064010000000081111561006d57600080fd5b82018360208201111561007f57600080fd5b803590602001918460018302840111640100000000831117156100a157600080fd5b91908080601f016020809104026020016040519081016040528093929190818152602001838380828437600081840152601f19601f8201169050808301925050505050505091929192908035906020019064010000000081111561010457600080fd5b82018360208201111561011657600080fd5b8035906020019184600183028401116401000000008311171561013857600080fd5b91908080601f016020809104026020016040519081016040528093929190818152602001838380828437600081840152601f19601f8201169050808301925050505050505091929192908035906020019064010000000081111561019b57600080fd5b8201836020820111156101ad57600080fd5b803590602001918460208302840111640100000000831117156101cf57600080fd5b919080806020026020016040519081016040528093929190818152602001838360200280828437600081840152601f19601f8201169050808301925050505050505091929192908035906020019064010000000081111561022f57600080fd5b82018360208201111561024157600080fd5b8035906020019184600183028401116401000000008311171561026357600080fd5b91908080601f016020809104026020016040519081016040528093929190818152602001838380828437600081840152601f19601f8201169050808301925050505050505091929192905050506103eb565b005b610370600480360360208110156102cd57600080fd5b81019080803590602001906401000000008111156102ea57600080fd5b8201836020820111156102fc57600080fd5b8035906020019184600183028401116401000000008311171561031e57600080fd5b91908080601f016020809104026020016040519081016040528093929190818152602001838380828437600081840152601f19601f820116905080830192505050505050509192919290505050610689565b6040518080602001828103825283818151815260200191508051906020019080838360005b838110156103b0578082015181840152602081019050610395565b50505050905090810190601f1680156103dd5780820380516001836020036101000a031916815260200191505b509250505060405180910390f35b600080846040518082805190602001908083835b6020831061042257805182526020820191506020810190506020830392506103ff565b6001836020036101000a0380198251168184511680821785525050505050509050019150509081526020016040518091039020600001805460018160011615610100020316600290049050146104e0576040517f08c379a00000000000000000000000000000000000000000000000000000000081526004018080602001828103825260118152602001807f6475706c6963617465206d61696c20696400000000000000000000000000000081525060200191505060405180910390fd5b600080846040518082805190602001908083835b6020831061051757805182526020820191506020810190506020830392506104f4565b6001836020036101000a0380198251168184511680821785525050505050509050019150509081526020016040518091039020905084816000019080519060200190610564929190610a31565b508281600101908051906020019061057d929190610ab1565b50806001013390806001815401808255809150509060018203906000526020600020016000909192909190916101000a81548173ffffffffffffffffffffffffffffffffffffffff021916908373ffffffffffffffffffffffffffffffffffffffff160217905550507f63b7287b327ae79dd3a1229a00f973e543a2087d22364d606b26123ea336e56c826040518080602001828103825283818151815260200191508051906020019080838360005b8381101561064857808201518184015260208101905061062d565b50505050905090810190601f1680156106755780820380516001836020036101000a031916815260200191505b509250505060405180910390a15050505050565b6060600080836040518082805190602001908083835b602083106106c2578051825260208201915060208101905060208303925061069f565b6001836020036101000a03801982511681845116808217855250505050505090500191505090815260200160405180910390206000018054600181600116156101000203166002900490501415610764576040517f08c379a000000000000000000000000000000000000000000000000000000000815260040180806020018281038252602c815260200180610ba4602c913960400191505060405180910390fd5b600080905060008090505b6000846040518082805190602001908083835b602083106107a55780518252602082019150602081019050602083039250610782565b6001836020036101000a0380198251168184511680821785525050505050509050019150509081526020016040518091039020600101805490508110156108cd573373ffffffffffffffffffffffffffffffffffffffff166000856040518082805190602001908083835b602083106108335780518252602082019150602081019050602083039250610810565b6001836020036101000a0380198251168184511680821785525050505050509050019150509081526020016040518091039020600101828154811061087457fe5b9060005260206000200160009054906101000a900473ffffffffffffffffffffffffffffffffffffffff1673ffffffffffffffffffffffffffffffffffffffff1614156108c057600191505b808060010191505061076f565b5080610924576040517f08c379a0000000000000000000000000000000000000000000000000000000008152600401808060200182810382526027815260200180610bd06027913960400191505060405180910390fd5b6000836040518082805190602001908083835b6020831061095a5780518252602082019150602081019050602083039250610937565b6001836020036101000a03801982511681845116808217855250505050505090500191505090815260200160405180910390206000018054600181600116156101000203166002900480601f016020809104026020016040519081016040528092919081815260200182805460018160011615610100020316600290048015610a245780601f106109f957610100808354040283529160200191610a24565b820191906000526020600020905b815481529060010190602001808311610a0757829003601f168201915b5050505050915050919050565b828054600181600116156101000203166002900490600052602060002090601f016020900481019282601f10610a7257805160ff1916838001178555610aa0565b82800160010185558215610aa0579182015b82811115610a9f578251825591602001919060010190610a84565b5b509050610aad9190610b3b565b5090565b828054828255906000526020600020908101928215610b2a579160200282015b82811115610b295782518260006101000a81548173ffffffffffffffffffffffffffffffffffffffff021916908373ffffffffffffffffffffffffffffffffffffffff16021790555091602001919060010190610ad1565b5b509050610b379190610b60565b5090565b610b5d91905b80821115610b59576000816000905550600101610b41565b5090565b90565b610ba091905b80821115610b9c57600081816101000a81549073ffffffffffffffffffffffffffffffffffffffff021916905550600101610b66565b5090565b9056fe74686973206d61696c20646f6573206e6f742065786973742c20706c6561736520636865636b20616761696e63616c6c6572206e6f7420616c6c6f77656420746f20726563656976652074686973206d61696ca265627a7a72315820a3baa83589019e323e523be4e3bba6df4dbce2d53fd1532684ceb827d232dc9864736f6c63430005100032",
  "source": "// pragma solidity ^0.7.0;\r\n\r\npragma solidity >=0.5.0 <0.8.0;\r\n// pragma experimental ABIEncoderV2;\r\n\r\n\r\ncontract MailTransfer {\r\n\r\n    mapping (string => mailStruct) private _idToMail;\r\n    struct mailStruct {\r\n        string hashIPFS;\r\n        address [] receiverAddresses;\r\n    }\r\n\r\n    event MailAdded(string randomNumber);\r\n\r\n    function addMail(string memory hashIPFS, string memory mailId,\r\n                    address [] memory  receiverAddresses, string memory randomNumber)\r\n                    public {\r\n        require(bytes(_idToMail[mailId].hashIPFS).length == 0, \"duplicate mail id\");\r\n        mailStruct storage mail = _idToMail[mailId];\r\n        mail.hashIPFS = hashIPFS;\r\n        mail.receiverAddresses = receiverAddresses;\r\n        mail.receiverAddresses.push(msg.sender);\r\n        emit MailAdded(randomNumber);\r\n    }\r\n\r\n    function getHash(string memory mailId) public view returns (string memory){\r\n        require(bytes(_idToMail[mailId].hashIPFS).length != 0, \"this mail does not exist, please check again\");\r\n        bool canReceive = false;\r\n        for (uint i = 0; i < _idToMail[mailId].receiverAddresses.length; i++) {\r\n            if(_idToMail[mailId].receiverAddresses[i] == msg.sender) {\r\n                canReceive = true;\r\n            }\r\n        }\r\n        require(canReceive, \"caller not allowed to receive this mail\");\r\n        return _idToMail[mailId].hashIPFS;\r\n    }\r\n}",
  "sourcePath": "D:/test_app/Arco-sec/Arco_sec_front/contracts/MailTransfer.sol",
  "compiler": {
    "name": "solc",
    "version": "0.5.16+commit.9c3226ce.Emscripten.clang"
  },
  "schemaVersion": "3.3.1",
  "updatedAt": "2020-11-03T11:09:24.124Z",
  "networkType": "ethereum",
  "devdoc": {
    "methods": {}
  },
  "userdoc": {
    "methods": {}
  }
}