{
  "contractName": "MailTransfer",
  "abi": [
    {
      "anonymous": false,
      "inputs": [
        {
          "indexed": false,
          "internalType": "string",
          "name": "randomNumber",
          "type": "string"
        }
      ],
      "name": "MailAdded",
      "type": "event"
    },
    {
      "constant": false,
      "inputs": [
        {
          "internalType": "string",
          "name": "hashIPFS",
          "type": "string"
        },
        {
          "internalType": "string",
          "name": "mailId",
          "type": "string"
        },
        {
          "internalType": "string",
          "name": "randomNumber",
          "type": "string"
        }
      ],
      "name": "addMail",
      "outputs": [],
      "payable": false,
      "stateMutability": "nonpayable",
      "type": "function"
    },
    {
      "constant": true,
      "inputs": [
        {
          "internalType": "string",
          "name": "mailId",
          "type": "string"
        }
      ],
      "name": "getHash",
      "outputs": [
        {
          "internalType": "string",
          "name": "",
          "type": "string"
        }
      ],
      "payable": false,
      "stateMutability": "view",
      "type": "function"
    }
  ],
  "bytecode": "0x608060405234801561001057600080fd5b50610861806100206000396000f3fe608060405234801561001057600080fd5b50600436106100365760003560e01c80635b6beeb91461003b578063639c19bf1461016f575b600080fd5b6100f46004803603602081101561005157600080fd5b810190808035906020019064010000000081111561006e57600080fd5b82018360208201111561008057600080fd5b803590602001918460018302840111640100000000831117156100a257600080fd5b91908080601f016020809104026020016040519081016040528093929190818152602001838380828437600081840152601f19601f820116905080830192505050505050509192919290505050610358565b6040518080602001828103825283818151815260200191508051906020019080838360005b83811015610134578082015181840152602081019050610119565b50505050905090810190601f1680156101615780820380516001836020036101000a031916815260200191505b509250505060405180910390f35b6103566004803603606081101561018557600080fd5b81019080803590602001906401000000008111156101a257600080fd5b8201836020820111156101b457600080fd5b803590602001918460018302840111640100000000831117156101d657600080fd5b91908080601f016020809104026020016040519081016040528093929190818152602001838380828437600081840152601f19601f8201169050808301925050505050505091929192908035906020019064010000000081111561023957600080fd5b82018360208201111561024b57600080fd5b8035906020019184600183028401116401000000008311171561026d57600080fd5b91908080601f016020809104026020016040519081016040528093929190818152602001838380828437600081840152601f19601f820116905080830192505050505050509192919290803590602001906401000000008111156102d057600080fd5b8201836020820111156102e257600080fd5b8035906020019184600183028401116401000000008311171561030457600080fd5b91908080601f016020809104026020016040519081016040528093929190818152602001838380828437600081840152601f19601f82011690508083019250505050505050919291929050505061053f565b005b6060600080836040518082805190602001908083835b60208310610391578051825260208201915060208101905060208303925061036e565b6001836020036101000a03801982511681845116808217855250505050505090500191505090815260200160405180910390206000018054600181600116156101000203166002900490501415610433576040517f08c379a000000000000000000000000000000000000000000000000000000000815260040180806020018281038252602c815260200180610801602c913960400191505060405180910390fd5b6000826040518082805190602001908083835b602083106104695780518252602082019150602081019050602083039250610446565b6001836020036101000a03801982511681845116808217855250505050505090500191505090815260200160405180910390206000018054600181600116156101000203166002900480601f0160208091040260200160405190810160405280929190818152602001828054600181600116156101000203166002900480156105335780601f1061050857610100808354040283529160200191610533565b820191906000526020600020905b81548152906001019060200180831161051657829003601f168201915b50505050509050919050565b600080836040518082805190602001908083835b602083106105765780518252602082019150602081019050602083039250610553565b6001836020036101000a038019825116818451168082178552505050505050905001915050908152602001604051809103902060000180546001816001161561010002031660029004905014610634576040517f08c379a00000000000000000000000000000000000000000000000000000000081526004018080602001828103825260118152602001807f6475706c6963617465206d61696c20696400000000000000000000000000000081525060200191505060405180910390fd5b600080836040518082805190602001908083835b6020831061066b5780518252602082019150602081019050602083039250610648565b6001836020036101000a03801982511681845116808217855250505050505090500191505090815260200160405180910390209050838160000190805190602001906106b892919061075b565b507f63b7287b327ae79dd3a1229a00f973e543a2087d22364d606b26123ea336e56c826040518080602001828103825283818151815260200191508051906020019080838360005b8381101561071b578082015181840152602081019050610700565b50505050905090810190601f1680156107485780820380516001836020036101000a031916815260200191505b509250505060405180910390a150505050565b828054600181600116156101000203166002900490600052602060002090601f016020900481019282601f1061079c57805160ff19168380011785556107ca565b828001600101855582156107ca579182015b828111156107c95782518255916020019190600101906107ae565b5b5090506107d791906107db565b5090565b6107fd91905b808211156107f95760008160009055506001016107e1565b5090565b9056fe74686973206d61696c20646f6573206e6f742065786973742c20706c6561736520636865636b20616761696ea265627a7a72315820cfd83303cfc9096e023ad314bde924d851aacb8d3fbc1b437ce7683aad8cf3c964736f6c63430005100032",
  "source": "// pragma solidity ^0.7.0;\r\n\r\npragma solidity >=0.5.0 <0.8.0;\r\n// pragma experimental ABIEncoderV2;\r\n\r\n\r\ncontract MailTransfer {\r\n\r\n    mapping (string => mailStruct) private _idToMail;\r\n    struct mailStruct {\r\n        string hashIPFS;\r\n        address [] receiverAddresses;\r\n    }\r\n\r\n    event MailAdded(string randomNumber);\r\n\r\n    // function addMail(string memory hashIPFS, string memory mailId,\r\n    //                 address receiverAddresses, string memory randomNumber)\r\n    //                 public {\r\n    //     require(bytes(_idToMail[mailId].hashIPFS).length == 0, \"duplicate mail id\");\r\n    //     mailStruct storage mail = _idToMail[mailId];\r\n    //     mail.hashIPFS = hashIPFS;\r\n    //     // mail.receiverAddresses = receiverAddresses;\r\n    //     mail.receiverAddresses.push(receiverAddresses);\r\n    //     mail.receiverAddresses.push(msg.sender);\r\n    //     emit MailAdded(randomNumber);\r\n    // }\r\n    function addMail(string memory hashIPFS, string memory mailId,string memory randomNumber) public {\r\n        require(bytes(_idToMail[mailId].hashIPFS).length == 0, \"duplicate mail id\");\r\n        mailStruct storage mail = _idToMail[mailId];\r\n        mail.hashIPFS = hashIPFS;\r\n        // mail.receiverAddresses = receiverAddresses;\r\n        // mail.receiverAddresses.push(receiverAddresses);\r\n        // mail.receiverAddresses.push(msg.sender);\r\n        emit MailAdded(randomNumber);\r\n    }\r\n\r\n    function getHash(string memory mailId) public view returns (string memory){\r\n        require(bytes(_idToMail[mailId].hashIPFS).length != 0, \"this mail does not exist, please check again\");\r\n        // bool canReceive = false;\r\n        // for (uint i = 0; i < _idToMail[mailId].receiverAddresses.length; i++) {\r\n        //     if(_idToMail[mailId].receiverAddresses[i] == msg.sender) {\r\n        //         canReceive = true;\r\n        //     }\r\n        // }\r\n        // require(canReceive, \"caller not allowed to receive this mail\");\r\n        return _idToMail[mailId].hashIPFS;\r\n    }\r\n}",
  "sourcePath": "C:/Users/ahmedatef/Desktop/code/Demo_project/Dapp+Angular2/contracts/MailTransfer.sol",
  "compiler": {
    "name": "solc",
    "version": "0.5.16+commit.9c3226ce.Emscripten.clang"
  },
  "schemaVersion": "3.3.1",
  "updatedAt": "2020-11-03T15:16:20.489Z",
  "networkType": "ethereum",
  "devdoc": {
    "methods": {}
  },
  "userdoc": {
    "methods": {}
  }
}