{
  "contractName": "Meme",
  "abi": [
    {
      "constant": true,
      "inputs": [],
      "name": "memeHash",
      "outputs": [
        {
          "internalType": "string",
          "name": "",
          "type": "string"
        }
      ],
      "payable": false,
      "stateMutability": "view",
      "type": "function"
    },
    {
      "constant": false,
      "inputs": [
        {
          "internalType": "string",
          "name": "_memeHash",
          "type": "string"
        }
      ],
      "name": "set",
      "outputs": [],
      "payable": true,
      "stateMutability": "payable",
      "type": "function"
    },
    {
      "constant": true,
      "inputs": [],
      "name": "get",
      "outputs": [
        {
          "internalType": "string",
          "name": "",
          "type": "string"
        }
      ],
      "payable": false,
      "stateMutability": "view",
      "type": "function"
    }
  ],
  "bytecode": "0x608060405234801561001057600080fd5b50610448806100206000396000f3fe6080604052600436106100345760003560e01c80634ed3885e146100395780636d4ce63c146100f4578063d84b628a14610184575b600080fd5b6100f26004803603602081101561004f57600080fd5b810190808035906020019064010000000081111561006c57600080fd5b82018360208201111561007e57600080fd5b803590602001918460018302840111640100000000831117156100a057600080fd5b91908080601f016020809104026020016040519081016040528093929190818152602001838380828437600081840152601f19601f820116905080830192505050505050509192919290505050610214565b005b34801561010057600080fd5b5061010961022e565b6040518080602001828103825283818151815260200191508051906020019080838360005b8381101561014957808201518184015260208101905061012e565b50505050905090810190601f1680156101765780820380516001836020036101000a031916815260200191505b509250505060405180910390f35b34801561019057600080fd5b506101996102d0565b6040518080602001828103825283818151815260200191508051906020019080838360005b838110156101d95780820151818401526020810190506101be565b50505050905090810190601f1680156102065780820380516001836020036101000a031916815260200191505b509250505060405180910390f35b806000908051906020019061022a92919061036e565b5050565b606060008054600181600116156101000203166002900480601f0160208091040260200160405190810160405280929190818152602001828054600181600116156101000203166002900480156102c65780601f1061029b576101008083540402835291602001916102c6565b820191906000526020600020905b8154815290600101906020018083116102a957829003601f168201915b5050505050905090565b60008054600181600116156101000203166002900480601f0160208091040260200160405190810160405280929190818152602001828054600181600116156101000203166002900480156103665780601f1061033b57610100808354040283529160200191610366565b820191906000526020600020905b81548152906001019060200180831161034957829003601f168201915b505050505081565b828054600181600116156101000203166002900490600052602060002090601f016020900481019282601f106103af57805160ff19168380011785556103dd565b828001600101855582156103dd579182015b828111156103dc5782518255916020019190600101906103c1565b5b5090506103ea91906103ee565b5090565b61041091905b8082111561040c5760008160009055506001016103f4565b5090565b9056fea265627a7a723158205cf6309e077645199d470fbe14e553fbaa276491e3a04942f4185342ae6a448a64736f6c63430005100032",
  "source": "pragma solidity ^0.5.0;\r\n\r\n// save hash on the blockchain\r\n\r\ncontract Meme {\r\n  string public memeHash;\r\n\r\n  function set(string memory _memeHash) public payable {\r\n    memeHash = _memeHash;\r\n  }\r\n\r\n  function get() public view returns (string memory) {\r\n    return memeHash;\r\n  }\r\n}\r\n",
  "sourcePath": "C:/Users/ahmedatef/Desktop/code/Demo_project/Dapp+Angular2/contracts/Meme.sol",
  "compiler": {
    "name": "solc",
    "version": "0.5.16+commit.9c3226ce.Emscripten.clang"
  },
  "schemaVersion": "3.3.1",
  "updatedAt": "2020-11-03T15:16:20.485Z",
  "networkType": "ethereum",
  "devdoc": {
    "methods": {}
  },
  "userdoc": {
    "methods": {}
  }
}